{
  "_format": "hh-sol-artifact-1",
  "contractName": "MessageBox",
  "sourceName": "contracts/MessageBox.sol",
  "abi": [
    {
      "inputs": [
        {
          "internalType": "uint256",
          "name": "_firstMessageContent",
          "type": "uint256"
        }
      ],
      "stateMutability": "nonpayable",
      "type": "constructor"
    },
    {
      "anonymous": false,
      "inputs": [
        {
          "indexed": false,
          "internalType": "uint256",
          "name": "index",
          "type": "uint256"
        },
        {
          "indexed": false,
          "internalType": "uint256",
          "name": "content",
          "type": "uint256"
        },
        {
          "indexed": false,
          "internalType": "address",
          "name": "author",
          "type": "address"
        },
        {
          "indexed": false,
          "internalType": "uint256",
          "name": "timestamp",
          "type": "uint256"
        }
      ],
      "name": "MessageAdded",
      "type": "event"
    },
    {
      "inputs": [
        {
          "internalType": "uint256",
          "name": "_content",
          "type": "uint256"
        }
      ],
      "name": "addMessage",
      "outputs": [],
      "stateMutability": "nonpayable",
      "type": "function"
    },
    {
      "inputs": [],
      "name": "getAllMessages",
      "outputs": [
        {
          "components": [
            {
              "internalType": "uint256",
              "name": "index",
              "type": "uint256"
            },
            {
              "internalType": "uint256",
              "name": "content",
              "type": "uint256"
            },
            {
              "internalType": "address",
              "name": "author",
              "type": "address"
            },
            {
              "internalType": "uint256",
              "name": "timestamp",
              "type": "uint256"
            }
          ],
          "internalType": "struct MessageBox.Message[]",
          "name": "",
          "type": "tuple[]"
        }
      ],
      "stateMutability": "view",
      "type": "function"
    },
    {
      "inputs": [
        {
          "internalType": "uint256",
          "name": "_index",
          "type": "uint256"
        }
      ],
      "name": "getMessage",
      "outputs": [
        {
          "components": [
            {
              "internalType": "uint256",
              "name": "index",
              "type": "uint256"
            },
            {
              "internalType": "uint256",
              "name": "content",
              "type": "uint256"
            },
            {
              "internalType": "address",
              "name": "author",
              "type": "address"
            },
            {
              "internalType": "uint256",
              "name": "timestamp",
              "type": "uint256"
            }
          ],
          "internalType": "struct MessageBox.Message",
          "name": "",
          "type": "tuple"
        }
      ],
      "stateMutability": "view",
      "type": "function"
    },
    {
      "inputs": [],
      "name": "messageCounter",
      "outputs": [
        {
          "internalType": "uint256",
          "name": "",
          "type": "uint256"
        }
      ],
      "stateMutability": "view",
      "type": "function"
    },
    {
      "inputs": [
        {
          "internalType": "uint256",
          "name": "",
          "type": "uint256"
        }
      ],
      "name": "messages",
      "outputs": [
        {
          "internalType": "uint256",
          "name": "index",
          "type": "uint256"
        },
        {
          "internalType": "uint256",
          "name": "content",
          "type": "uint256"
        },
        {
          "internalType": "address",
          "name": "author",
          "type": "address"
        },
        {
          "internalType": "uint256",
          "name": "timestamp",
          "type": "uint256"
        }
      ],
      "stateMutability": "view",
      "type": "function"
    }
  ],
  "bytecode": "0x6080604052600080553480156200001557600080fd5b5060405162000b4638038062000b4683398181016040528101906200003b91906200017c565b6200004c816200005360201b60201c565b50620002ec565b604051806080016040528060005481526020018281526020013373ffffffffffffffffffffffffffffffffffffffff168152602001428152506001600080548152602001908152602001600020600082015181600001556020820151816001015560408201518160020160006101000a81548173ffffffffffffffffffffffffffffffffffffffff021916908373ffffffffffffffffffffffffffffffffffffffff160217905550606082015181600301559050507f0c95bc85272b348255d4911f001deba15f65d4d87ab0f9c359a50ff11785e1a1600054823342604051620001419493929190620001ca565b60405180910390a16000808154809291906200015d9062000255565b919050555050565b6000815190506200017681620002d2565b92915050565b6000602082840312156200018f57600080fd5b60006200019f8482850162000165565b91505092915050565b620001b38162000217565b82525050565b620001c4816200024b565b82525050565b6000608082019050620001e16000830187620001b9565b620001f06020830186620001b9565b620001ff6040830185620001a8565b6200020e6060830184620001b9565b95945050505050565b600062000224826200022b565b9050919050565b600073ffffffffffffffffffffffffffffffffffffffff82169050919050565b6000819050919050565b600062000262826200024b565b91507fffffffffffffffffffffffffffffffffffffffffffffffffffffffffffffffff821415620002985762000297620002a3565b5b600182019050919050565b7f4e487b7100000000000000000000000000000000000000000000000000000000600052601160045260246000fd5b620002dd816200024b565b8114620002e957600080fd5b50565b61084a80620002fc6000396000f3fe608060405234801561001057600080fd5b50600436106100575760003560e01c80630d80fefd1461005c578063529c75881461008f57806353f5e380146100ad57806386c44efb146100cb57806386f79edb146100e7575b600080fd5b610076600480360381019061007191906104ee565b610117565b60405161008694939291906106cb565b60405180910390f35b610097610167565b6040516100a491906106b0565b60405180910390f35b6100b561016d565b6040516100c29190610673565b60405180910390f35b6100e560048036038101906100e091906104ee565b6102ec565b005b61010160048036038101906100fc91906104ee565b6103fa565b60405161010e9190610695565b60405180910390f35b60016020528060005260406000206000915090508060000154908060010154908060020160009054906101000a900473ffffffffffffffffffffffffffffffffffffffff16908060030154905084565b60005481565b60606000805467ffffffffffffffff8111156101b2577f4e487b7100000000000000000000000000000000000000000000000000000000600052604160045260246000fd5b6040519080825280602002602001820160405280156101eb57816020015b6101d861049b565b8152602001906001900390816101d05790505b50905060005b6000548110156102e4576001600082815260200190815260200160002060405180608001604052908160008201548152602001600182015481526020016002820160009054906101000a900473ffffffffffffffffffffffffffffffffffffffff1673ffffffffffffffffffffffffffffffffffffffff1673ffffffffffffffffffffffffffffffffffffffff1681526020016003820154815250508282815181106102c6577f4e487b7100000000000000000000000000000000000000000000000000000000600052603260045260246000fd5b602002602001018190525080806102dc90610785565b9150506101f1565b508091505090565b604051806080016040528060005481526020018281526020013373ffffffffffffffffffffffffffffffffffffffff168152602001428152506001600080548152602001908152602001600020600082015181600001556020820151816001015560408201518160020160006101000a81548173ffffffffffffffffffffffffffffffffffffffff021916908373ffffffffffffffffffffffffffffffffffffffff160217905550606082015181600301559050507f0c95bc85272b348255d4911f001deba15f65d4d87ab0f9c359a50ff11785e1a16000548233426040516103d894939291906106cb565b60405180910390a16000808154809291906103f290610785565b919050555050565b61040261049b565b6001600083815260200190815260200160002060405180608001604052908160008201548152602001600182015481526020016002820160009054906101000a900473ffffffffffffffffffffffffffffffffffffffff1673ffffffffffffffffffffffffffffffffffffffff1673ffffffffffffffffffffffffffffffffffffffff1681526020016003820154815250509050919050565b60405180608001604052806000815260200160008152602001600073ffffffffffffffffffffffffffffffffffffffff168152602001600081525090565b6000813590506104e8816107fd565b92915050565b60006020828403121561050057600080fd5b600061050e848285016104d9565b91505092915050565b600061052383836105ab565b60808301905092915050565b61053881610749565b82525050565b61054781610749565b82525050565b600061055882610720565b6105628185610738565b935061056d83610710565b8060005b8381101561059e5781516105858882610517565b97506105908361072b565b925050600181019050610571565b5085935050505092915050565b6080820160008201516105c16000850182610655565b5060208201516105d46020850182610655565b5060408201516105e7604085018261052f565b5060608201516105fa6060850182610655565b50505050565b6080820160008201516106166000850182610655565b5060208201516106296020850182610655565b50604082015161063c604085018261052f565b50606082015161064f6060850182610655565b50505050565b61065e8161077b565b82525050565b61066d8161077b565b82525050565b6000602082019050818103600083015261068d818461054d565b905092915050565b60006080820190506106aa6000830184610600565b92915050565b60006020820190506106c56000830184610664565b92915050565b60006080820190506106e06000830187610664565b6106ed6020830186610664565b6106fa604083018561053e565b6107076060830184610664565b95945050505050565b6000819050602082019050919050565b600081519050919050565b6000602082019050919050565b600082825260208201905092915050565b60006107548261075b565b9050919050565b600073ffffffffffffffffffffffffffffffffffffffff82169050919050565b6000819050919050565b60006107908261077b565b91507fffffffffffffffffffffffffffffffffffffffffffffffffffffffffffffffff8214156107c3576107c26107ce565b5b600182019050919050565b7f4e487b7100000000000000000000000000000000000000000000000000000000600052601160045260246000fd5b6108068161077b565b811461081157600080fd5b5056fea2646970667358221220411836f171ce1ae81dd863f7b0b4e0cd68aa0927b34fa79263f38d181934a1a964736f6c63430008040033",
  "linkReferences": {},
  "deployedLinkReferences": {}
}